:020000040800F2
:10000000780600202D020008A5120008F111000852
:10001000A112000835030008C91200080000000002
:10002000000000000000000000000000AD12000809
:100030003903000800000000A9120008B1120008EE
:10004000470200084702000847020008470200086C
:10005000470200084702000847020008470200085C
:100060003D03000845030008470200084702000856
:10007000470200084702000847020008470200083C
:10008000470200084702000847020008470200082C
:10009000470200084702000847020008470200081C
:1000A000470200084702000847020008470200080C
:1000B000470200080000000000000000470200089E
:1000C00047020008470200084702000847020008EC
:1000D00047020008470200084702000847020008DC
:1000E000470200084702000800000000000000006E
:1000F0000000000000000000000000000000000000
:10010000000000004702000800000000470200084D
:10011000000000000000000047020008470200083D
:10012000470200084702000847020008470200088B
:10013000470200080000000000000000000000006E
:1001400047020008470200084702000800000000BC
:10015000470200084702000847020008470200085B
:10016000470200084702000847020008000000009C
:1001700047020008470200080000000000000000DD
:1001800047020008470200084702000800F002F892
:1001900000F03CF80AA090E8000C82448344AAF1E5
:1001A0000107DA4501D100F031F8AFF2090EBAE8E3
:1001B0000F0013F0010F18BFFB1A43F0010318479B
:1001C000EC1100000C120000103A24BF78C878C16E
:1001D000FAD8520724BF30C830C144BF04680C604D
:1001E000704700000023002400250026103A28BF95
:1001F00078C1FBD8520728BF30C148BF0B60704799
:100200001FB501F0A6F81FBD10B510BD00F058F8DD
:100210001146FFF7F5FF01F059F800F076F803B446
:10022000FFF7F2FF03BC00F07DF8000009488047AB
:1002300009480047FEE7FEE7FEE7FEE7FEE7FEE7C8
:10024000FEE7FEE7FEE7FEE704480549054A064BE0
:1002500070470000B51200088D01000878000020EA
:100260007806002078020020780200204FF000027B
:1002700000B5134694469646203922BFA0E80C509C
:10028000A0E80C50B1F12001BFF4F7AF090728BF77
:10029000A0E80C5048BF0CC05DF804EB890028BFF3
:1002A00040F8042B08BF704748BF20F8022B11F01C
:1002B000804F18BF00F8012B704770477047704798
:1002C000754600F02BF8AE4605006946534620F00F
:1002D0000700854618B020B5FFF7B6FFBDE82040FF
:1002E0004FF000064FF000074FF000084FF0000BF2
:1002F000AC46ACE8C009ACE8C009ACE8C009ACE861
:10030000C00921F007018D46704710B50446AFF3D0
:1003100000802046BDE81040FFF781BF00487047CD
:100320001000002001491820ABBEFEE726000200A5
:1003300070470000FEE7000070470000042000F056
:100340001BB80000082000F017B8000008280BD0E8
:10035000042818BF704740F20040C4F60000042192
:10036000012200F005B900BF40F20040C4F60000D1
:100370000821002200F0FCB840F21441C4F201014F
:100380000A68024214BF08607047FFF7DFBF000031
:100390002DE9F04F84B08E4641F20002C4F600020F
:1003A000DEF8004007219042019008BF0421002C94
:1003B000009100F0D7800198002500F138424FEA03
:1003C000B2230098012700264FF00008042B38BF05
:1003D00018460090CDF808E00EE000BFDEF80040BF
:1003E00008F1010834FA07F106F1020607F10107E6
:1003F00005F1040500F0B680A7F1010A012000FA1A
:100400000AF314EA0309E9D0DEF804C00CF0030B88
:10041000ABF10104012C17D80198744681680322BE
:10042000E468B2409143B4402143816041684FEA9F
:10043000480E9943CCF3001303FA0AF30446D04361
:10044000194361600CE000BF0321B140019CC84327
:10045000BBF1030FB64603D1B6464FF0030B23E0C2
:10046000E168029A01409368BBF1020F03FA0EF3B0
:1004700041EA0301E16017D16FF0030101EA5A017B
:10048000214405F01C040F23D1F820C003FA04FB1B
:1004900013692CEA0B0CA34043EA0C03019C0B628A
:1004A000D2F804C00CF0030B21680BFA0EF20140E5
:1004B00011432160DDF808E01CF4403F8ED041F28A
:1004C0006000C4F20200016840F2004C41F00101FA
:1004D00001600168C4F2010C01F00101039103996C
:1004E0002AF003014FF6084A6144CFF6FF7A05F07F
:1004F0000C030F2051F80A2000FA03F40098A243DD
:1005000000FA03F31A4341F80A20DCF80810DEF879
:10051000042041EA090340F20C40D40258BF21EA0A
:100520000903CCF80830C4F201000168940241EAE2
:10053000090358BF21EA09030360DCF8041094039F
:1005400041EA090358BF21EA0903CCF80430DCF87A
:100550000010D20341EA090358BF21EA0903CCF88D
:1005600000303BE704B000F000B830BCBDE8C08FFD
:100570001823002A08BF2823C150704740F270009A
:10058000C2F200000068704740F2000040F27001C3
:10059000C2F20000C2F2000100780A68104408604C
:1005A0007047000080B5032000F088F80F2000F0AD
:1005B00009F800281CBF012080BD00F029F80020A8
:1005C00080BD000070B540F20006C2F2000631782E
:1005D000E1B1044640F20800C2F200004FF47A7222
:1005E0000068B2FBF1F1B0FBF1F000F0EBFD0F2C75
:1005F0004FF0010508D838B94FF0FF3021460022EE
:10060000002500F02FF87460284670BD012070BDF1
:1006100082B041F25800C4F20200816841F0010149
:100620008160816801F0010101910199016841F047
:1006300080510160006800F080500090009802B086
:1006400070470000002848BF704700F01F010122DA
:1006500002FA01F14EF200124009CEF2000242F815
:100660002010704710B54EF60C5CCEF2000CDCF892
:100670000030C3F3022E8EF00704042C28BF04249C
:10068000BEF103034FF0FF3E0EFA04F438BF00231F
:10069000A14399400EFA03F39A43114300F00F026D
:1006A000043A624409010C3200F16043B0F1FF3FAB
:1006B000C8BF03F56442117010BD00004EF60C5126
:1006C000CEF200010A684FF6FF031A4060F30A22D7
:1006D00042F0806040F0FD700860704747F2000112
:1006E000C4F200010A68B0F5007F02F4C06031D1A5
:1006F000B0F5007F2CD00868012262F34A20086020
:1007000040F20800C2F200000068322250434DF669
:100710008362C4F21B32A0FB0202900C4A695205AC
:1007200011D5421C0FD04A6952050CD558B14A69FF
:10073000520508D5012806D04A69520503D502287A
:10074000A0F10400EAD14869400544BF0320704786
:1007500000207047B0F5806FFAD00868022262F37B
:100760004A2008600020704747F20000C4F20000F1
:10077000006800F4C06070472DE9F04381B00028A4
:100780006BD042F20008C4F202080446D8F8000018
:100790000D4600F0070088420CD2D8F8000020F087
:1007A00007002843C8F80000D8F8000000F0070050
:1007B000A84252D1206841F2080910F00201C4F2A7
:1007C00002090DD0A268D9F8003003F0F0039A4274
:1007D00006D9D9F8003023F0F0031A43C9F80020F5
:1007E000C2072DD169B1A168D9F8002002F0F0024A
:1007F000914206D2D9F8002022F0F0021143C9F844
:100800000010D8F8001001F00701A9420CD9D8F85F
:10081000001021F007012943C8F80010D8F8001093
:1008200001F00701A94218D141071BD4000723D4C6
:10083000D9F80000D9F8041010F00C002CD131E0E8
:10084000606800285ED0022800F07E80032840F017
:10085000818059F8081C890158D4012001B0BDE8F5
:10086000F08300BFD9F80010E26821F4E061114381
:10087000C9F800100007DBD5D9F80000216920F481
:10088000605040EAC100C9F80000D9F80000D9F86A
:10089000041010F00C0005D00C2829D101F0030140
:1008A000012925D159F8081C090703D4D9F88C105F
:1008B000090A02E059F8081C090941F27C3201F0EA
:1008C0000F01C0F6000252F8211000280A4618BF96
:1008D00000220C2871D1D9F8040000F0030002288E
:1008E00046D0032804BF41F20021C0F27A0143E060
:1008F000042857D008285BD141F20022C0F27A02C6
:100900005BE000BF59F8081C8907A6D5D9F800108C
:1009100021F003010843C9F80000FFF72FFE064647
:1009200041F28837D9F80000616800F00C00B0EBA4
:10093000810F15D0FFF722FE801BB842F2D90320A9
:1009400001B0BDE8F08300BF59F8081C89037FF5AA
:1009500084AFDBE759F8081C49057FF57EAFD5E782
:10096000206800F0020100297FF43DAF49E700BF95
:1009700042F20041C0F2F401D9F80400D9F8042091
:10098000C0F30210C2F306225143D9F8042001300B
:10099000B1FBF0F0C2F34161022202EB4101B0FB76
:1009A000F1F20AE042F20042C0F2F40205E000BFB8
:1009B000002200210C283FF48EAFD9F8000041F24C
:1009C0006C31C0F30310C0F60001085C00F01F009A
:1009D00022FA00F140F20400C2F2000040F20802E4
:1009E0000068C2F20002116001B0BDE8F043FFF7F9
:1009F000E9BD00002DE9F04383B0002800F0388302
:100A000041F200060446C4F20206B068F16822789A
:100A100000F00C09D00601F003081DD42078C007AF
:100A200000F08180B9F1080F76D0B9F10C0F08BF42
:100A3000B8F1030F70D06068B0F5803F07D0B0F513
:100A4000A02F40F04B82306840F480203060306846
:100A500040F4803030604CE2B9F1000F1ED0B9F1A3
:100A60000C0F08BFB8F1010F18D0A1693068002938
:100A700000F0968140F001003060FFF77FFD0546F1
:100A80003068800700F19E81FFF778FD401B022847
:100A90004FF00300F4D903B0BDE8F083306880075D
:100AA00003D5A069002800F0E382256A30680007BA
:100AB00000F13E81D6F89400000900F0F000854274
:100AC00000F23C813068B9F1000F40F0080030605E
:100AD000306820F0F00040EA050030607068E1699D
:100AE00020F47F4040EA0120706040F0AF82B06D9A
:100AF000C00000F14B82B06D40F08050B065B06D29
:100B000000F0805002900298FFF72EFEB16D21F0A8
:100B10008051B1653CE200BF3068800303D5606856
:100B2000002800F0A582207880072DD5B9F1040FA8
:100B30001CD0B9F10C0F08BFB8F1020F16D0E16854
:100B40003068002900F0E48140F480703060FFF7E5
:100B500015FD0546306840050FD4FFF70FFD401B1B
:100B600002284FF00300F5D995E700BF3068400533
:100B700003D5E068002800F07B827068216920F0CE
:100B8000F85040EA016070602078000760D4207857
:100B9000400775D42078800600F1AE80A06A002856
:100BA00000F00C83022840F01F81F068E16A00F039
:100BB00003028A4240F03081226B6FF00F0300F095
:100BC000700103EB0212914240F02681616B00F448
:100BD000FE42B2EB012F40F01F81A16B00F0784282
:100BE000B2EBC16F40F01881E26B0023CFF6E073E7
:100BF00003EB025200F4C0016FF31402914240F083
:100C00000B81216C4FF07E4202EB016100F0C0606D
:100C100001F07E41884240F0FF803068800100F1A1
:100C2000CD82306840F080703060F06840F08070B5
:100C3000F060FFF7A3FC04463068800100F1BE823B
:100C4000FFF79CFC001B02284FF00300F4D922E7B9
:100C50006169D6F89400002900F08C8040F0010012
:100C6000C6F89400FFF78AFC054600BFD6F894004A
:100C700080078CD4FFF782FC401B0228F6D929E1BB
:100C8000B06D10F0805808D1B06D40F08050B06564
:100C9000B06D00F080500090009847F20007C4F259
:100CA00000073868C00513D4386840F48070386095
:100CB000FFF764FC054600BF3868C00508D4FFF79D
:100CC0005DFC401B02284FF00300F5D9E3E600BFAE
:100CD000A068012808D0052840F0DE80D6F89000F2
:100CE00040F00400C6F89000D6F8900040F00100F3
:100CF000C6F89000DFE000BF616AD6F898000029CE
:100D000000F0B48040F00100C6F89800FFF736FC10
:100D1000054600BFD6F8980080073FF53FAFFFF7C4
:100D20002DFC401B02284FF00300F3D9B3E600BFAF
:100D3000306800F0F00085427FF6C4AEB06DC000B0
:100D400000F18680B06D40F08050B065B06D00F06D
:100D5000805001900198FFF707FDB16D21F080519F
:100D6000B165B0F5007F79D0802D40F2E38003209B
:100D7000EBE000BF20F00100C6F89400FFF7FEFB97
:100D8000054600BFD6F8940080077FF500AFFFF757
:100D9000F5FB401B02284FF00300F3D97BE600BFB0
:100DA00020F001003060FFF7E9FB0546306880075E
:100DB0007FF534AEFFF7E2FB401B02284FF0030043
:100DC000F4D968E6306840F0080030603068D4E953
:100DD000072120F0F00008433060706820F47F4065
:100DE00040EA0220706019E6B9F10C0F00F0408172
:100DF000306820F080703060FFF7C0FB044600BF11
:100E00003068800140F1EE80FFF7B8FB001B02283C
:100E10004FF00300F4D93EE6B9F10C0F00F0288141
:100E20003068400100F12481306820F0807030602B
:100E3000FFF7A4FB05463068800140F18181FFF790
:100E40009DFB401B02284FF00300F4D923E600BFAE
:100E5000FFF78AFCB0F5007F7FF486AF812D73D356
:100E60000120A02D88BF02206FE000BF20F001000C
:100E7000C6F89800FFF782FB054600BFD6F8980039
:100E800080077FF58BAEFFF779FB401B02284FF000
:100E90000300F3D9FFE500BFD6F89010002821F039
:100EA0000101C6F89010D6F8901021F00401C6F8A0
:100EB000901000F07B80FFF761FB054641F2883718
:100EC000D6F89000800700F18380FFF757FB401BA6
:100ED000B842F5D9032003B0BDE8F083316800289B
:100EE00021F480313160316821F48021316000F0DB
:100EF0008580FFF743FB0546306880033FF513AE5E
:100F0000FFF73CFB401B64284FF00300F4D9C2E517
:100F100020F480703060FFF731FB054630684005F3
:100F20007FF532AEFFF72AFB401B02284FF003008B
:100F3000F4D9B0E5A5F17000B0FA80F04009802D39
:100F400008BF022001E000BF002042F20001C4F20D
:100F500002010A6822F0070202440A60096801F0EF
:100F60000701814240F08480306840F00800306022
:100F70003068D4E9072120F0F00008433060706841
:100F800020F47F4040EA022070605FE0FFF7ECFB56
:100F9000B0F5007F06D1812D40D30120A02D88BF60
:100FA000022045E0802D3BD9032041E0FFF7E6FA1F
:100FB000054641F28837D6F89000800708D5FFF73C
:100FC000DDFA401BB8424FF00300F4D963E500BFDF
:100FD000B8F1000F7FF4DEADB06D20F08050B06549
:100FE000D8E500BFF0684FF6FC71CFF6EE6108401F
:100FF000F060002003B0BDE8F08300BFFFF7BEFA49
:101000000546306880037FF58EADFFF7B7FA401BC9
:1010100064284FF00300F4D93DE500BF002007E04D
:10102000A5F17000B0FA80F04009802D08BF0220C1
:1010300042F20001C4F202010A6822F007020244EF
:101040000A60096801F00701814211D1B068F168B6
:1010500010F00C0005D00C282AD101F00301012961
:1010600026D13168090707D4D6F89410090A05E09B
:10107000012003B0BDE8F0833168090941F27C32F8
:1010800001F00F01C0F6000252F8211000280A46B4
:1010900018BF00220C2837D1F06800F003000228A6
:1010A00010D0032804BF41F20021C0F27A010DE004
:1010B00004281FD0082823D141F20022C0F27A026E
:1010C00022E000BF42F20041C0F2F401F068F26891
:1010D000C0F30210C2F306225143F2680130B1FBA3
:1010E000F0F0C2F34161022202EB4101B0FBF1F2E8
:1010F0000AE000BF42F20042C0F2F40204E000BF86
:10110000002200210C28C7D0B06841F26C31C0F336
:101110000310C0F60001085C00F01F0022FA00F185
:1011200040F20400C2F2000040F208020068C2F27D
:1011300000021160FFF746FA00287FF4ACAC6DE4C2
:10114000F06848F28C01C0F29D1104F12C0700EA0E
:10115000010C8ECF6FF00F00D4E90F5400EB02109A
:101160000022CFF6E07241EA0C0102EB055208437F
:101170006FF314024FF07E4540EA032005EB04654F
:10118000104305F07E4540EAC7602843F0603068B0
:1011900040F080703060F06840F08070F060FFF7E1
:1011A000EDF904463068800108D4FFF7E7F9001B29
:1011B00002284FF00300F5D96DE400BF002003B012
:1011C000BDE8F083411E0020B0EB116F1CBF012071
:1011D00070474EF21002CEF2000251604EF62351DB
:1011E000CEF20001F0230B70072190601160704770
:1011F000FEE7000070B586B0002541F24C00059571
:10120000C4F20200016840F6000441F004010160EC
:101210000168C4F6000401F004010091009901681E
:10122000002241F00201016001684FF4005601F014
:10123000020100910099016841F00101016000681C
:101240004FF4005100F00100009000982046FFF795
:101250008FF901960126CDE90265049501AD20467E
:101260002946FFF795F80C2001904FF40410CDE9C2
:101270000206A4F580602946FFF78AF808200021BD
:101280000022FFF7EFF90820FFF7DCF90920002121
:101290000022FFF7E7F90920FFF7D4F906B070BD87
:1012A000FEE70000FEE70000704700007047000006
:1012B000FFF76AB94EF68850CEF20000016841F49B
:1012C0007001016070470000FEE7000096B0FFF774
:1012D00069F905A804302421FEF7C8FF4FF4007017
:1012E000FFF7FCF920B1EFF3108072B6FEE700BF04
:1012F00010206021059001200D9102210B90CDE975
:101300000F1011902820129007200024CDE913011E
:1013100005A80C941591FFF76DFB28B1EFF3108031
:1013200072B600BFFEE700BF0F2000900320CDE99A
:10133000010468460421CDE90344FFF71DFA28B1F2
:10134000EFF3108072B600BFFEE700BFFFF752FF59
:10135000FEE7F1EE100A4FF6FF71C0F2C03120EA4D
:10136000010040F04070E1EE100A704700000000FC
:10137000000000000102030406070809A08601001E
:10138000400D0300801A060000350C0040420F009B
:1013900080841E0000093D0000127A000024F40041
:1013A00000366E010048E801006CDC02D013000832
:1013B0000000002010000000C8010008E013000831
:1013C0001000002068060000E40100080000000092
:1013D000010000001000000000093D0000000000B6
:040000050800018D61
:00000001FF
