:020000040800F2
:1000000078060020CD010008690C0008A10B00084B
:10001000650C0008890200087D0C00080000000043
:10002000000000000000000000000000710C00084B
:100030008D020008000000006D0C0008750C00081F
:10004000E7010008E7010008E7010008E7010008F0
:10005000E7010008E7010008E7010008E7010008E0
:10006000E7010008E7010008E7010008E7010008D0
:10007000E7010008E7010008E7010008E7010008C0
:10008000E7010008E7010008E7010008E7010008B0
:10009000E7010008E7010008E7010008E7010008A0
:1000A000E7010008E7010008E7010008E701000890
:1000B000E7010008E7010008E7010008E701000880
:1000C000E7010008E7010008E7010008E701000870
:1000D000E7010008E7010008E7010008E701000860
:1000E000E7010008E7010008E7010008E701000850
:1000F000E7010008E7010008E7010008E701000840
:10010000E7010008E7010008E7010008E70100082F
:10011000E7010008E7010008E7010008E70100081F
:10012000E7010008E7010008E7010008E70100080F
:1001300000F002F800F03AF80AA090E8000C8244BF
:100140008344AAF10107DA4501D100F02FF8AFF29C
:10015000090EBAE80F0013F0010F18BFFB1A43F0A5
:1001600001031847F80B0000180C0000103A24BFD8
:1001700078C878C1FAD8520724BF30C830C144BF0C
:1001800004680C607047000000230024002500264E
:10019000103A28BF78C1FBD8520728BF30C148BFEA
:1001A0000B6070471FB51FBD10B510BD00F031F8D2
:1001B0001146FFF7F7FF00F063FD00F04FF803B4BE
:1001C000FFF7F2FF03BC00F057F800000948804732
:1001D00009480047FEE7FEE7FEE7FEE7FEE7FEE729
:1001E000FEE7FEE7FEE7FEE704480549054A064B41
:1001F00070470000790C00083101000878000020E9
:1002000078060020780200207802002070477047AE
:100210007047754600F02CF8AE4605006946534617
:1002200020F00700854618B020B5FFF7DDFFBDE8D8
:1002300020404FF000064FF000074FF000084FF04D
:10024000000BAC46ACE8C009ACE8C009ACE8C0099A
:10025000ACE8C00921F007018D46704710B504468F
:10026000AFF300802046BDE81040FFF7A8BF0000B4
:10027000004870471000002001491820ABBEFEE77F
:100280002600020070470000FEE7000070470000F3
:100290002DE9F04F83B041F60043C4F201030E682C
:1002A00006229842019008BF0522002E009200F01D
:1002B000ED80019840F20C45A0F18043A3F5843312
:1002C0004FEAB32740F200404FF6FF73C4F2010536
:1002D000C4F20100009A4FF0000E4FF0010CC1F281
:1002E00010034FF0000A4FF0000B4FF00F08052FDE
:1002F00038BF3A46009208E00E680AF1010A36FA61
:100300000AF20EF1040E00F0C1800CFA0AF916EAA6
:10031000090FF1D04E689E4212DC122E56D8DFE84B
:1003200006F0350B454955555555555555555555B7
:100330005555554D510000BFD1F80CB046E000BFF7
:100340004FF6FF72C1F2210296420FDC0022C1F289
:10035000110296421AD00022C1F21202964215D022
:100360000022C1F22102964210D02FE00022C1F2F9
:10037000220296420AD00022C1F23102964205D0F2
:100380000022C1F23202964220D100BF8E684EB1E7
:10039000012E019A14BFC2F81490C2F810904FF0C9
:1003A000080B13E04FF0040B10E000BFCF6807F11B
:1003B000080B0BE04FF0000B08E000BFCF6807F11F
:1003C000040B03E0CF6807F10C0B00BF7446BAF1D1
:1003D000080F28BF203C019F28BF04373E6808FA59
:1003E00004F226EA02020BFA04F632433A60CA79B2
:1003F000D2067FF581AF41F21807C4F202073A68CE
:100400004FF6084C42F001023A603A68CFF6FF7CA2
:1004100002F001020292029A2AF00302024452F808
:100420000C700EF00C0608FA06F4A743009C04FAC0
:1004300006F6374342F80C70D1F804C05FEACC32BC
:10044000026854BF22EA090642EA09065FEA8C32D2
:100450000660426854BF22EA090642EA09065FEADA
:10046000CC224660826854BF22EA090642EA0906A5
:100470005FEA8C2286604FF0010C2A6854BF22EAA2
:10048000090642EA09062E6036E700BF03B0BDE860
:10049000F08F00008068084018BF012070470000FE
:1004A000002A08BF090401617047000040F2700093
:1004B000C2F200000068704740F2000040F2700194
:1004C000C2F20000C2F2000100780A68104408601D
:1004D0007047000080B542F20000C4F202000168DB
:1004E00041F010010160032000F07AF80F2000F0C5
:1004F00005F800F027F8002080BD000070B540F23C
:100500000006C2F2000640F208013278C2F2000191
:100510004FF47A730968B3FBF2F20446B1FBF2F1CF
:10052000084600F027FB0F2C4FF0010508D838B91A
:100530004FF0FF3021460022002500F025F87460BE
:10054000284670BD82B041F21800C4F20200016872
:10055000022241F001010160016801F001010191F5
:100560000199416841F080514160406800F080503D
:10057000009000980420C4F20100016862F31A613F
:10058000016002B07047000010B54EF60C5CCEF270
:10059000000CDCF80030C3F3022E8EF00704042CAC
:1005A00028BF0424BEF103034FF0FF3E0EFA04F40B
:1005B00038BF0023A14399400EFA03F39A43114335
:1005C00000F00F02043A624409010C3200F160436A
:1005D000B0F1FF3FC8BF03F56442117010BD0000C9
:1005E0004EF60C51CEF200010A684FF6FF031A4096
:1005F00060F30A2242F0806040F0FD7008607047AE
:100600002DE9F04381B0002800F0858042F2000817
:10061000C4F202080446D8F800000D4600F00700B6
:1006200088420CD2D8F8000020F007002843C8F810
:100630000000D8F8000000F00700A8426BD1206845
:1006400041F204098107C4F2020917D5410705D513
:10065000D9F8001041F4E061C9F80010010705D590
:10066000D9F8001041F46051C9F80010D9F8001011
:10067000A26821F0F0011143C9F80010C00741D170
:10068000D8F8000000F00700A8420CD9D8F8000004
:1006900020F007002843C8F80000D8F8000000F058
:1006A0000700A84237D12068410707D5D9F80010C4
:1006B000E26821F4E0611143C9F80010000708D591
:1006C000D9F80000216920F4605040EAC100C9F85F
:1006D0000000D9F8002002F00C00082841F20020A8
:1006E000C0F27A0050D140F64A53C2F38341C0F6BB
:1006F0000003595CD2033BD440F60010C0F23D0029
:10070000484341E0606802280AD001282AD159F8FC
:10071000041C890308D4012001B0BDE8F08300BFA8
:1007200059F8041C8901F6D5D9F8001021F003010D
:100730000843C9F80000FFF7B9FE064641F28837C2
:10074000D9F80000616800F00C00B0EB810F97D081
:10075000FFF7ACFE801BB842F2D9032001B0BDE820
:10076000F08300BF59F8041C8907D4D5DCE700BF2B
:10077000D9F8002040F63853C2F34042C0F60003D7
:100780009A5C4843B0FBF2F0D9F8001040F63A52B8
:10079000C1F30311C0F60002515C40F2080220FAD6
:1007A00001F140F20400C2F200000068C2F200024F
:1007B0001160FFF7A3FE002001B0BDE8F083000048
:1007C0002DE9F04182B0002868D00446007841F25B
:1007D0000006C007C4F2020625D0706800F00C00C5
:1007E00004281BD0706800F00C00082802D1706843
:1007F000C00313D46068002800F06881B0F5A02F12
:1008000000F07C81B0F5803F00F07C81306820F4FE
:1008100080303060306820F4802076E130688003DA
:1008200001D56068D0B32078800718D5706810F0C3
:100830000C0F07D0706800F00C0008286ED17068AB
:10084000C0036BD43068800702D52069012825D108
:100850003068616920F0F80040EAC100306020781B
:1008600000071FD42078400732D4E56995B170683D
:1008700000F00C00082840F08F80012D0ED0706829
:10088000216A00F480328A4208D1616A00F4701053
:10089000884203D1002002B0BDE8F081012002B0FF
:1008A000BDE8F081A069002862D00020C4F2422097
:1008B0000121C0F88014FFF7F9FD0546706A800732
:1008C00000F18C80FFF7F2FD401B0228F6D92AE1E7
:1008D000F06910F0805808D1F06940F08050F06164
:1008E000F06900F080500090009847F20007C4F2D1
:1008F00000073868C00529D4386840F48070386033
:10090000FFF7D4FD054600BF3868C0051ED4FFF7C9
:10091000CDFD401B6428F7D905E100BF2069002800
:1009200040F20000C4F2422000F082800121016008
:10093000FFF7BCFD054600BF306880073FF588AF74
:10094000FFF7B4FD401B0228F6D9ECE0E068002870
:1009500000F08080052800F09780012800F0988042
:10096000306A20F001003062306A20F0040092E02A
:100970000020C4F242200021C0F88014FFF796FD49
:10098000054600BF706A80077FF56CAFFFF78EFDEC
:10099000401B0228F6D9C6E00027C4F242270020F7
:1009A0003866FFF783FD022D05460BD130688001C4
:1009B00040F1BE80FFF77AFD401B02284FF0030094
:1009C000F4D968E7306880017FF564AFFFF76EFD0A
:1009D000401B02284FF00300F4D95CE740F2080006
:1009E000C2F20000006844F6D351C1F26201A0FBDC
:1009F0000101480A019000BF00BF0198411E002874
:100A000001913FF42FAF00BF0198411E00280191D2
:100A10003FF428AF00BF0198411E002801913FF428
:100A200021AF00BF0198411E00280191E4D119E7D0
:100A300000210160FFF73AFD054600BF30688007DE
:100A40007FF50DAFFFF732FD401B02284FF003008A
:100A5000F4D920E7306A20F001003062306A20F0DB
:100A600004003062FFF722FD054641F2883700BFDF
:100A7000306A800720D5FFF719FD401BB8424FF0C0
:100A80000300F5D907E700BF306A40F00400306288
:100A9000306A40F001003062FFF708FD054641F280
:100AA000883700BF306A800706D4FFF7FFFC401B81
:100AB000B842F7D937E000BFB8F1000F7FF4D5AEE8
:100AC000F06920F08050F061CFE600BF306820F47C
:100AD00080303060306820F480203060FFF7E6FC22
:100AE000054600BF306880037FF59DAEFFF7DEFC52
:100AF000401B64284FF00300F4D9CCE6306840F482
:100B000080203060306840F480303060FFF7CEFCE9
:100B1000054600BF306880033FF585AEFFF7C6FC91
:100B2000401B6428F6D9032002B0BDE8F08100BF65
:100B3000206AB0F5803F05D17168A26821F40031C8
:100B4000114371607168626A21F4741110430843A3
:100B5000706001203866FFF7A9FC04463068800108
:100B60003FF598AEFFF7A2FC001B02284FF00300F0
:100B7000F4D990E6411E0020B0EB116F1CBF01209C
:100B800070474EF21002CEF2000251604EF6235131
:100B9000CEF20001F0230B700721906011607047C6
:100BA000FEE700002DE9F04786B04FF0000941F262
:100BB0001800CDF81490C4F20200016841F6000557
:100BC00041F0400101600168C4F2010501F04001FB
:100BD000019101990168002241F00401016001685E
:100BE0004FF0200801F0040101910199016841F0E2
:100BF000080101600068202100F0080001900198C0
:100C00002846FFF74DFCA5F5406A504620210022FA
:100C1000FFF746FC102002AECDE902090127284665
:100C200031460497FFF734FB022428463146CDE9CC
:100C30000287CDF810900594FFF72AFBA5F58050A8
:100C40003146CDE902790494FFF722FB5046314644
:100C5000CDE90287CDE90494FFF71AFB06B0BDE8A1
:100C6000F0870000FEE70000FEE70000704700008C
:100C700070470000FFF720BC70470000FEE700004F
:100C800090B0FFF727FC00240120CDE90B44CDE90B
:100C900009440A9010200B904FF4601002250F9029
:100CA00006A8CDE907440695CDE90D54FFF788FD68
:100CB00020B1EFF3108072B6FEE700BF0F20CDE940
:100CC00001054FF48060CDE9040401A802210394DA
:100CD000FFF796FC20B1EFF3108072B6FEE700BF7D
:100CE00041F60004C4F20104FFF75CFFA4F580554F
:100CF000A4F5406805E000BF002240462021FFF730
:100D0000CFFB20461021FFF7C5FB064628460121F0
:100D1000FFF7C0FB07461EB1012E06D1012200E0FD
:100D2000002220462021FFF7BBFB1FB1012FE3D09B
:100D3000E7E700BF0122E0E7010200000000000039
:100D40000000010203040607080902030405060760
:100D500008090A0B0C0D0E0F10100000800D000882
:100D600000000020100000006C010008900D000839
:100D70001000002068060000880100080000000044
:100D800001000000100000000024F400000000003A
:0400000508000131BD
:00000001FF
