:020000040800F2
:10000000F80600202D020008E917000881170008F3
:10001000E517000825040008A11E000800000000E4
:100020000000000000000000000000005D19000852
:100030002904000800000000ED17000861190008FD
:10004000470200084702000847020008470200086C
:10005000470200084702000847020008470200085C
:10006000470200084702000847020008470200084C
:10007000470200084702000847020008470200083C
:10008000470200084702000847020008470200082C
:10009000470200084702000847020008470200081C
:1000A000470200084702000847020008470200080C
:1000B000470200080000000000000000470200089E
:1000C00047020008470200084702000847020008EC
:1000D00047020008470200084702000847020008DC
:1000E000470200084702000800000000000000006E
:1000F0000000000000000000000000000000000000
:10010000000000004702000800000000470200084D
:10011000000000000000000047020008470200083D
:10012000470200084702000847020008470200088B
:10013000470200080000000000000000000000006E
:1001400047020008470200084702000800000000BC
:10015000470200084702000847020008470200085B
:10016000470200084702000847020008000000009C
:1001700047020008470200080000000000000000DD
:1001800047020008470200084702000800F002F892
:1001900000F03CF80AA090E8000C82448344AAF1E5
:1001A0000107DA4501D100F031F8AFF2090EBAE8E3
:1001B0000F0013F0010F18BFFB1A43F0010318479B
:1001C000E01D0000001E0000103A24BF78C878C16E
:1001D000FAD8520724BF30C830C144BF04680C604D
:1001E000704700000023002400250026103A28BF95
:1001F00078C1FBD8520728BF30C148BF0B60704799
:100200001FB501F094FE1FBD10B510BD00F0D0F871
:100210001146FFF7F5FF01F045FE00F0EEF803B4DC
:10022000FFF7F2FF03BC00F0F5F800000948804733
:1002300009480047FEE7FEE7FEE7FEE7FEE7FEE7C8
:10024000FEE7FEE7FEE7FEE704480549054A064BE0
:1002500070470000651900088D010008F8000020B3
:10026000F8060020F8020020F802002053EA020CF1
:1002700000F069802DE9F04B4FF00006002B1FBF06
:10028000B3FA83F503FA05F424FA05F65E4012BFCB
:100290001643B2FA82F502FA05F4C5F120051EBF35
:1002A00022FA05FC44EA0C04203556EA044C4FEAD5
:1002B000144418BF641C4FF000084FF0000990422E
:1002C00071EB030C39D3002919BFB1FA81F701FA98
:1002D00007F6B0FA80F700FA07F6C7F120071EBF4D
:1002E00020FA07FC46EA0C062037B6FBF4FCA7EB25
:1002F0000507103F07F01F0BCBF120062CFA06F67E
:100300000CFA0BFB44BFB3460026202FA4BF5E4669
:100310004FF0000B5BEA060C08BF4FF0010B19EB26
:100320000B0948EB0608ABFB027C06FB02CC0BFB7F
:1003300003CCC01B71EB0C01C1E70B4602464146E2
:100340004846BDE8F08B13B5084318BF4FF0FF30A7
:100350000146AFF30080BDE81C4070474FF000023B
:1003600000B5134694469646203922BFA0E80C50AB
:10037000A0E80C50B1F12001BFF4F7AF090728BF86
:10038000A0E80C5048BF0CC05DF804EB890028BF02
:1003900040F8042B08BF704748BF20F8022B11F02B
:1003A000804F18BF00F8012B7047704770477047A7
:1003B000754600F02BF8AE4605006946534620F01E
:1003C0000700854618B020B5FFF73EFFBDE8204086
:1003D0004FF000064FF000074FF000084FF0000B01
:1003E000AC46ACE8C009ACE8C009ACE8C009ACE870
:1003F000C00921F007018D46704710B50446AFF3E0
:1004000000802046BDE81040FFF709BF0048704754
:100410001000002001491820ABBEFEE726000200B4
:1004200070470000FEE7000070470000EFF3108007
:1004300072B600BFFEE700002DE9F04F84B08E4693
:1004400041F20002C4F60002DEF8004007219042AB
:10045000019008BF0421002C009100F0D780019882
:10046000002500F138424FEAB22300980127002608
:100470004FF00008042B38BF18460090CDF808E074
:100480000EE000BFDEF8004008F1010834FA07F181
:1004900006F1020607F1010705F1040500F0B68038
:1004A000A7F1010A012000FA0AF314EA0309E9D0CE
:1004B000DEF804C00CF0030BABF10104012C17D8DB
:1004C0000198744681680322E468B2409143B440C5
:1004D0002143816041684FEA480E9943CCF30013F1
:1004E00003FA0AF30446D043194361600CE000BFED
:1004F0000321B140019CC843BBF1030FB64603D1B1
:10050000B6464FF0030B23E0E168029A014093687E
:10051000BBF1020F03FA0EF341EA0301E16017D1C8
:100520006FF0030101EA5A01214405F01C040F2376
:10053000D1F820C003FA04FB13692CEA0B0CA3408A
:1005400043EA0C03019C0B62D2F804C00CF0030BCD
:1005500021680BFA0EF2014011432160DDF808E03A
:100560001CF4403F8ED041F26000C4F202000168EA
:1005700040F2004C41F0010101600168C4F2010C3D
:1005800001F00101039103992AF003014FF6084A93
:100590006144CFF6FF7A05F00C030F2051F80A20D2
:1005A00000FA03F40098A24300FA03F31A4341F857
:1005B0000A20DCF80810DEF8042041EA090340F2C2
:1005C0000C40D40258BF21EA0903CCF80830C4F229
:1005D00001000168940241EA090358BF21EA0903B6
:1005E0000360DCF80410940341EA090358BF21EAD0
:1005F0000903CCF80430DCF80010D20341EA090307
:1006000058BF21EA0903CCF800303BE704B000F002
:1006100000B830BCBDE8C08F40F2F400C2F2000068
:100620000068704740F2000040F2F401C2F200009E
:10063000C2F2000100780A681044086070470000A8
:1006400080B5032000F078F80F2000F009F80028AA
:100650001CBF012080BD00F029F8002080BD0000F3
:1006600070B540F20006C2F200063178E1B10446EE
:1006700040F20800C2F200004FF47A720068B2FB48
:10068000F1F1B0FBF1F000F0C1FF0F2C4FF00105CC
:1006900008D838B94FF0FF3021460022002500F07D
:1006A0001FF87460284670BD012070BD82B041F211
:1006B0005800C4F20200816841F001018160816844
:1006C00001F0010101910199016841F0805101603F
:1006D000006800F080500090009802B07047000061
:1006E00010B54EF60C5CCEF2000CDCF80030C3F313
:1006F000022E8EF00704042C28BF0424BEF103034D
:100700004FF0FF3E0EFA04F438BF0023A143994096
:100710000EFA03F39A43114300F00F02043A6244C5
:1007200009010C3200F16043B0F1FF3FC8BF03F58F
:100730006442117010BD00004EF60C51CEF2000163
:100740000A684FF6FF031A4060F30A2242F0806005
:1007500040F0FD700860704747F20001C4F20001EC
:100760000A68B0F5007F02F4C06031D1B0F5007FB7
:100770002CD00868012262F34A20086040F2080089
:10078000C2F200000068322250434DF68362C4F288
:100790001B32A0FB0202900C4A69520511D5421C83
:1007A0000FD04A6952050CD558B14A69520508D58F
:1007B000012806D04A69520503D50228A0F1040099
:1007C000EAD14869400544BF0320704700207047C4
:1007D000B0F5806FFAD00868022262F34A20086000
:1007E0000020704747F20000C4F20000006800F4E7
:1007F000C06070472DE9F04381B00446407841F273
:1008000088070007C4F2020721D5606C80B1B0F5FB
:10081000400F15D0B0F5000F40F02A8157F87C0C3E
:1008200040F4803047F87C0C4FF400000AE000BF31
:10083000201D002100F0DCFF814650B9606C01E012
:100840004FF44000396821F44001084338604FF00C
:100850000009A078800751D557F8300C10F0805867
:100860000BD157F8300C40F0805047F8300C57F857
:10087000300C00F080500090009847F20005C4F260
:100880000005286840F480702860FFF7C5FE064622
:100890002868C00508D4FFF7BFFE801B0228F7D9DF
:1008A0004FF0030921E000BFB9F1000F1DD1B86876
:1008B00010F4407011D0A16D88420BD0B868B968AF
:1008C00020F4407041F48031B960B96821F480317E
:1008D000B960B860C00740F0D380B868A16D20F45B
:1008E000407008434FF00009B860B8F1000F05D11F
:1008F00057F8300C20F0805047F8300C2168C807BA
:1009000012D1880718D448071ED4880624D4880535
:100910002AD4480530D4480636D408063CD4C80545
:1009200042D4080348D459E03868226A20F0030012
:10093000104338608807E6D53868626A20F00C00FA
:10094000104338604807E0D53868A26A20F03000CC
:10095000104338608806DAD53868E26A20F44060CF
:10096000104338608805D4D53868E26B20F4402005
:10097000104338604805CED53868226C20F440100A
:10098000104338604806C8D53868226B20F44050C0
:10099000104338600806C2D53868626B20F44040C6
:1009A00010433860C805BCD53868A26B20F44030CD
:1009B00010433860080311D53A68A06C22F04062F9
:1009C0000243B0F1806F3A601ED0B0F1006F05D1E4
:1009D00057F87C0C40F4801047F87C0C480327D56E
:1009E0003A68E06C22F040620243B0F1806F3A60F6
:1009F00016D0B0F1006F1BD157F87C0C40F480107A
:100A000047F87C0C14E000BF201D012100F0F0FE2F
:100A10002168002818BF81464803E1D408E000BFE0
:100A2000201D012100F0E4FE2168002818BF814646
:100A3000480410D53868226D20F040501043B2F1C0
:100A4000805F386007D1201D022100F0D1FE2168AF
:100A5000002818BF8146080405D53868616D20F06C
:100A6000804008433860484601B0BDE8F08300BFCD
:100A70004FF00109A07880073FF5EEAE3EE700BFDA
:100A8000FFF7CAFD064641F288354FF0030900BF63
:100A9000B86880073FF521AFFFF7BEFD801BA84275
:100AA000F6D922E72DE9F04381B000286BD042F25D
:100AB0000008C4F202080446D8F800000D4600F011
:100AC000070088420CD2D8F8000020F00700284325
:100AD000C8F80000D8F8000000F00700A84252D182
:100AE000206841F2080910F00201C4F202090DD099
:100AF000A268D9F8003003F0F0039A4206D9D9F879
:100B0000003023F0F0031A43C9F80020C2072DD1AA
:100B100069B1A168D9F8002002F0F002914206D232
:100B2000D9F8002022F0F0021143C9F80010D8F8DB
:100B3000001001F00701A9420CD9D8F8001021F0EB
:100B400007012943C8F80010D8F8001001F0070188
:100B5000A94218D141071BD4000723D4D9F80000BB
:100B6000D9F8041010F00C002CD131E06068002896
:100B70005ED0022800F07E80032840F0818059F882
:100B8000081C890158D4012001B0BDE8F08300BFE2
:100B9000D9F80010E26821F4E0611143C9F80010AF
:100BA0000007DBD5D9F80000216920F4605040EA45
:100BB000C100C9F80000D9F80000D9F8041010F0FD
:100BC0000C0005D00C2829D101F00301012925D101
:100BD00059F8081C090703D4D9F88C10090A02E057
:100BE00059F8081C090941F6607201F00F01C0F6BE
:100BF000000252F8211000280A4618BF00220C28D3
:100C000071D1D9F8040000F00300022846D003286F
:100C100004BF41F20021C0F27A0143E0042857D01A
:100C200008285BD141F20022C0F27A025BE000BFEB
:100C300059F8081C8907A6D5D9F8001021F003013E
:100C40000843C9F80000FFF7E7FC064641F2883781
:100C5000D9F80000616800F00C00B0EB810F15D0EE
:100C6000FFF7DAFC801BB842F2D9032001B0BDE8DF
:100C7000F08300BF59F8081C89037FF584AFDBE7D8
:100C800059F8081C49057FF57EAFD5E7206800F0CC
:100C9000020100297FF43DAF49E700BF42F2004165
:100CA000C0F2F401D9F80400D9F80420C0F302100E
:100CB000C2F306225143D9F804200130B1FBF0F011
:100CC000C2F34161022202EB4101B0FBF1F20AE002
:100CD00042F20042C0F2F40205E000BF002200210F
:100CE0000C283FF48EAFD9F8000041F64871C0F3EC
:100CF0000310C0F60001085C00F01F0022FA00F1AA
:100D000040F20400C2F2000040F208020068C2F2A1
:100D10000002116001B0BDE8F043FFF7A1BC000084
:100D200040F2080041F20801C2F20000C4F20201E0
:100D30000068096841F65872C1F30221C0F600024A
:100D4000515C01F01F01C8407047000040F20800EC
:100D500041F20801C2F20000C4F202010068096811
:100D600041F65872C1F3C221C0F60002515C01F095
:100D70001F01C8407047000041F20C01C4F202019B
:100D800051F8040C10F00C02086805D00C2A29D187
:100D900000F00300012825D151F80C0C000703D402
:100DA000D1F88800000A02E051F80C0C000941F665
:100DB000607300F00F00C0F6000353F82030002AE3
:100DC000184618BF00200C2A18BF7047086800F0AA
:100DD0000300022810D0032804BF41F20023C0F210
:100DE0007A030DE0042A1FD0082A23D141F2002003
:100DF000C0F27A00704700BF42F20043C0F2F40331
:100E000008680A68C0F30210C2F3062209680130BC
:100E10005A43B2FBF0F0C1F34161022202EB4101FF
:100E2000B0FBF1F0704700BF42F20040C0F2F400A6
:100E3000704700BF00200023C5E700002DE9F04304
:100E400083B0002800F0388341F200060446C4F263
:100E50000206B068F168227800F00C09D00601F0B3
:100E600003081DD42078C00700F08180B9F1080F75
:100E700076D0B9F10C0F08BFB8F1030F70D06068DD
:100E8000B0F5803F07D0B0F5A02F40F04B8230681E
:100E900040F480203060306840F4803030604CE2B4
:100EA000B9F1000F1ED0B9F10C0F08BFB8F1010F56
:100EB00018D0A1693068002900F0968140F0010047
:100EC0003060FFF7A9FB05463068800700F19E817E
:100ED000FFF7A2FB401B02284FF00300F4D903B038
:100EE000BDE8F0833068800703D5A069002800F0D2
:100EF000E382256A3068000700F13E81D6F894004D
:100F0000000900F0F000854200F23C813068B9F140
:100F1000000F40F008003060306820F0F00040EA38
:100F2000050030607068E16920F47F4040EA0120EC
:100F3000706040F0AF82B06DC00000F14B82B06DC8
:100F400040F08050B065B06D00F080500290029883
:100F5000FFF748FCB16D21F08051B1653CE200BF64
:100F60003068800303D56068002800F0A5822078EF
:100F700080072DD5B9F1040F1CD0B9F10C0F08BFB3
:100F8000B8F1020F16D0E1683068002900F0E48162
:100F900040F480703060FFF73FFB05463068400545
:100FA0000FD4FFF739FB401B02284FF00300F5D99F
:100FB00095E700BF3068400503D5E068002800F0E1
:100FC0007B827068216920F0F85040EA016070600F
:100FD0002078000760D42078400775D420788006F8
:100FE00000F1AE80A06A002800F00C83022840F0D7
:100FF0001F81F068E16A00F003028A4240F030810C
:10100000226B6FF00F0300F0700103EB02129142AC
:1010100040F02681616B00F4FE42B2EB012F40F0FC
:101020001F81A16B00F07842B2EBC16F40F01881D4
:10103000E26B0023CFF6E07303EB025200F4C00131
:101040006FF31402914240F00B81216C4FF07E420D
:1010500002EB016100F0C06001F07E41884240F087
:10106000FF803068800100F1CD82306840F08070F0
:101070003060F06840F08070F060FFF7CDFA044611
:101080003068800100F1BE82FFF7C6FA001B02281B
:101090004FF00300F4D922E76169D6F894000029E3
:1010A00000F08C8040F00100C6F89400FFF7B4FA1D
:1010B000054600BFD6F8940080078CD4FFF7ACFA41
:1010C000401B0228F6D929E1B06D10F0805808D1F4
:1010D000B06D40F08050B065B06D00F08050009071
:1010E000009847F20007C4F200073868C00513D41F
:1010F000386840F480703860FFF78EFA054600BF0C
:101100003868C00508D4FFF787FA401B02284FF063
:101110000300F5D9E3E600BFA068012808D0052840
:1011200040F0DE80D6F8900040F00400C6F8900051
:10113000D6F8900040F00100C6F89000DFE000BF54
:10114000616AD6F89800002900F0B48040F00100F0
:10115000C6F89800FFF760FA054600BFD6F8980079
:1011600080073FF53FAFFFF757FA401B02284FF0CB
:101170000300F3D9B3E600BF306800F0F000854209
:101180007FF6C4AEB06DC00000F18680B06D40F057
:101190008050B065B06D00F0805001900198FFF76D
:1011A00021FBB16D21F08051B165B0F5007F79D0A0
:1011B000802D40F2E3800320EBE000BF20F001002F
:1011C000C6F89400FFF728FA054600BFD6F8940049
:1011D00080077FF500AFFFF71FFA401B02284FF092
:1011E0000300F3D97BE600BF20F001003060FFF779
:1011F00013FA0546306880077FF534AEFFF70CFA26
:10120000401B02284FF00300F4D968E6306840F034
:10121000080030603068D4E9072120F0F00008436E
:101220003060706820F47F4040EA0220706019E668
:10123000B9F10C0F00F04081306820F08070306010
:10124000FFF7EAF9044600BF3068800140F1EE8004
:10125000FFF7E2F9001B02284FF00300F4D93EE645
:10126000B9F10C0F00F028813068400100F12481B1
:10127000306820F080703060FFF7CEF905463068A6
:10128000800140F18181FFF7C7F9401B02284FF030
:101290000300F4D923E600BFFFF7A4FAB0F5007FFE
:1012A0007FF486AF812D73D30120A02D88BF02204B
:1012B0006FE000BF20F00100C6F89800FFF7ACF91E
:1012C000054600BFD6F8980080077FF58BAEFFF784
:1012D000A3F9401B02284FF00300F3D9FFE500BF3C
:1012E000D6F89010002821F00101C6F89010D6F829
:1012F000901021F00401C6F8901000F07B80FFF7F9
:101300008BF9054641F28837D6F89000800700F146
:101310008380FFF781F9401BB842F5D9032003B061
:10132000BDE8F0833168002821F4803131603168F4
:1013300021F48021316000F08580FFF76DF90546CA
:10134000306880033FF513AEFFF766F9401B642851
:101350004FF00300F4D9C2E520F480703060FFF74D
:101360005BF90546306840057FF532AEFFF754F96A
:10137000401B02284FF00300F4D9B0E5A5F170003E
:10138000B0FA80F04009802D08BF022001E000BFC4
:10139000002042F20001C4F202010A6822F00702B2
:1013A00002440A60096801F00701814240F084802C
:1013B000306840F0080030603068D4E9072120F040
:1013C000F00008433060706820F47F4040EA02205B
:1013D00070605FE0FFF706FAB0F5007F06D1812D5F
:1013E00040D30120A02D88BF022045E0802D3BD9AD
:1013F000032041E0FFF710F9054641F28837D6F89F
:101400009000800708D5FFF707F9401BB8424FF05E
:101410000300F4D963E500BFB8F1000F7FF4DEAD3F
:10142000B06D20F08050B065D8E500BFF0684FF691
:10143000FC71CFF6EE610840F060002003B0BDE81B
:10144000F08300BFFFF7E8F80546306880037FF5BA
:101450008EADFFF7E1F8401B64284FF00300F4D98C
:101460003DE500BF002007E0A5F17000B0FA80F074
:101470004009802D08BF022042F20001C4F202019F
:101480000A6822F0070202440A60096801F00701B5
:10149000814211D1B068F16810F00C0005D00C2821
:1014A0002AD101F00301012926D13168090707D4A7
:1014B000D6F89410090A05E0012003B0BDE8F083D6
:1014C0003168090941F6607201F00F01C0F60002AF
:1014D00052F8211000280A4618BF00220C2837D1E4
:1014E000F06800F00300022810D0032804BF41F286
:1014F0000021C0F27A010DE004281FD0082823D172
:1015000041F20022C0F27A0222E000BF42F2004122
:10151000C0F2F401F068F268C0F30210C2F30622D0
:101520005143F2680130B1FBF0F0C2F34161022295
:1015300002EB4101B0FBF1F20AE000BF42F20042CF
:10154000C0F2F40204E000BF002200210C28C7D042
:10155000B06841F64871C0F30310C0F60001085CA2
:1015600000F01F0022FA00F140F20400C2F2000075
:1015700040F208020068C2F200021160FFF770F842
:1015800000287FF4ACAC6DE4F06848F28C01C0F246
:101590009D1104F12C0700EA010C8ECF6FF00F00B3
:1015A000D4E90F5400EB02100022CFF6E07241EABA
:1015B0000C0102EB055208436FF314024FF07E4515
:1015C00040EA032005EB0465104305F07E4540EA40
:1015D000C7602843F060306840F080703060F06889
:1015E00040F08070F060FFF717F804463068800123
:1015F00008D4FFF711F8001B02284FF00300F5D9BB
:101600006DE400BF002003B0BDE8F083411E002060
:10161000B0EB116F1CBF012070474EF21002CEF2EA
:10162000000251604EF62351CEF20001F0230B7000
:101630000721906011607047B0B582B0A0B1044638
:10164000806F28B9002084F87400204600F056F816
:101650002420A0672068016821F001010160204674
:1016600000F0FEF9012803D1012002B0B0BD00BF97
:10167000606A10B1204600F07FF92068416821F4CB
:1016800090414160816821F02A018160016841F048
:10169000010101600020C4F88000FEF7BDFF216851
:1016A00005460A6812070CD56FF07E4C20464FF4B1
:1016B000001100222B46CDF800C000F0E9FA78B9FD
:1016C0002168086840070FD56FF07E4C20464FF424
:1016D000800100222B46CDF800C000F0D9FA18B1E5
:1016E000032002B0B0BD00BF2020A067E06700204B
:1016F000206684F8740002B0B0BD000010B59CB044
:101700000446684604305821FEF728FE206844F25B
:101710000041C4F20001884202D01CB010BD00BFDD
:10172000022468460094FFF765F8002818BFFEF70A
:101730007DFE41F24C00C4F20200C16841F4003168
:10174000C160C16801F4003117911799016841F037
:1017500001010160006817A900F0010017901798B7
:101760000C20CDE917040020199003201A900720BF
:101770001B904FF09040FEF75FFE1CB010BD0000C4
:10178000FEE7000081B041F24C00C4F202000168A3
:1017900041F001010160006800F001000090009834
:1017A00001B0704780B540F2700044F20041C2F2CF
:1017B0000000C4F2000100234FF00C0C4FF4E132A2
:1017C00080E80E00C0E90333C0E905C3C0E9073370
:1017D0004362FFF731FF002808BF80BDBDE88040AD
:1017E000FEF724BEFEE70000FEE7000070470000A1
:1017F000F0B581B041F20007C4F20207FA680D4665
:101800009107044614D0F868216800F0030088426C
:101810004FF0010040F09F80002900F09C80F868A4
:101820006168C0F302100130884232D134E000BF59
:10183000206803280CD0022816D0012829D1396845
:10184000012211F0020182EA510116D120E000BF0D
:101850003968890310D43968012211F4802182EAA1
:1018600091410AD114E000BF3968012211F480616E
:1018700082EA912101D10BE00021FA68636822F02D
:1018800073026FF00F0606EB031310431843F86062
:1018900011B1012001B0F0BD386820F080603860DF
:1018A000FEF7BAFE064600BF3868000106D5FEF70F
:1018B000B3FE801B0228F7D944E000BF012D0DD0F4
:1018C000F5B9386948F2FF01C0F2FF710840D4E968
:1018D000021240EA012040EAC26022E048F2FF0121
:1018E0003869CFF6FF112269002301F1B461CFF608
:1018F000E0730840A16803EB02526FF314020DE09D
:10190000386948F2FF016269CFF6FF114FF07E435C
:101910000840A16803EB026202F07E4240EA012027
:1019200010433861386840F080603860FEF774FE1C
:10193000054600BF3868000108D4FEF76DFE401B65
:101940000228F7D9032001B0F0BD00BFA0693969B2
:1019500008433861002001B0F0BD0000704700006E
:10196000FEF760BE4EF68850CEF20000016841F4EA
:10197000700101607047000080B5416ACA070DD14F
:101980008A0716D44A071FD40A0728D4CA0631D4B6
:101990008A063AD44A0658D542E000BF0268D0F819
:1019A00028C0536823F4003343EA0C0353608A07CA
:1019B000E8D50268D0F82CC0536823F4803343EA9A
:1019C0000C0353604A07DFD50268D0F830C0536873
:1019D00023F4802343EA0C0353600A07D6D5026838
:1019E000D0F834C0536823F4004343EA0C03536037
:1019F000CA06CDD50268D0F838C0936823F4805366
:101A000043EA0C0393608A06C4D50268D0F83CC050
:101A1000936823F4005343EA0C0393604A0614D5F9
:101A20000268D0F840C05368BCF5801F23F48013CF
:101A300043EA0C03536008D1D2F804C0D0F844E064
:101A40002CF4C00343EA0E035360090658BF80BD5F
:101A50000168806C4A6822F400221043486080BD0F
:101A6000B0B505462A69D5E9021300680A436969D9
:101A7000D5F81CE01143026846F6F314CEF6FF7465
:101A800041EA0E01224011430160416848F2000C16
:101A900021F4405119434160AA69C4F2000C604529
:101AA0001CBF296A0A438168102321F43061114365
:101AB000816047F6FF71C4F20001884212DC44F2F3
:101AC0000041C4F2000188421CD044F60001C4F277
:101AD000000188422CD141F28801C4F20201096858
:101AE0000B091DE0604515D043F60001C4F2010169
:101AF00088421DD141F28801C4F202010B6860A244
:101B000012E000BF41F28801C4F2020109688B08AB
:101B100006E000BF41F28801C4F2020109688B0AA5
:101B200041F69072C0F6000203F0030152F8213032
:101B3000604542F20040C0F2F40015D0BEF5004FFF
:101B400022D1082B4FF0010100F29580DFE803F06D
:101B500006546093589393935E0000BFFFF7E0F83C
:101B6000002855D14FE000BF082B4FF0010100F2D3
:101B70008280DFE803F0058023801B8080802100C5
:101B8000FFF7CEF8D0B914E0082B4FF0010100F2B6
:101B90007280DFE803F005535F70577070705D006E
:101BA000FFF7BEF8002855D14FE000BFFFF7E4F87B
:101BB00020B900215FE000BF4FF400406A6802EBEB
:101BC000420188424FF0010155D31303984252D885
:101BD000010E000210EB520041F100010023FEF75C
:101BE00045FB4FF60052A0F54071C0F20F02914242
:101BF0003BD301213FE000BFFFF7A8F840B902E066
:101C0000FFF7BAF820B9002135E000BF4FF40040DB
:101C100069684A0802EB4000B0FBF1F04FF6EF7242
:101C2000A0F11001914207D84FF6F0710140C0F3C6
:101C30004200084419E000BF01211CE0FFF786F8CC
:101C400040B902E0FFF798F820B9002113E000BF87
:101C50004FF4004069684FF6EF7200EB5100B0FBA3
:101C6000F1F0A0F11001914204D82968C860002168
:101C700001E000BF0121002208466A66AA66B0BDE5
:101C80000100000004000000020000000800000045
:101C90002DE9F041044600681546C2690E46114020
:101CA000891BB1FA81F14909A94240F0A080DDF811
:101CB0001880B8F1000F29D018F1010140F08080A0
:101CC000C1693140891BB1FA81F14909A94240F04B
:101CD0008E80C1693140891BB1FA81F14909A9425D
:101CE00040F08580C1693140891BB1FA81F1490911
:101CF000A9427CD1C1693140891BB1FA81F14909FE
:101D0000A942DDD00020BDE8F08100BFFEF784FCD1
:101D1000206850E8000F216820F4D07041E80002EC
:101D2000BAB3206850E8000F216820F4D07041E871
:101D3000000272B3206850E8000F216820F4D070D0
:101D400041E800022AB3206850E8000F216820F41F
:101D5000D07041E80002002ADAD11AE0206850E889
:101D6000020F216820F0010041E80202DAB1206888
:101D700050E8020F216820F0010041E8020292B110
:101D8000206850E8020F216820F0010041E80202BB
:101D90004AB1206850E8020F216820F0010041E8B4
:101DA0000202002ADAD12020A06704F17C00202161
:101DB0000160002084F874000320BDE8F08100BFBA
:101DC0001F4600BFFEF728FCC01B4045A0D8206876
:101DD0000168490744BFC1695FEA01510AD4C0697B
:101DE0003040801BB0FA80F04009A842EAD00020C1
:101DF000BDE8F0814FF40061016200BF50E8000FC0
:101E0000216820F4D07041E80002C2B3206850E895
:101E1000000F216820F4D07041E800027AB32068F6
:101E200050E8000F216820F4D07041E8000232B37E
:101E3000206850E8000F216820F4D07041E80002CB
:101E4000EAB12068DAE700BF206850E8020F216895
:101E500020F0010041E80202DAB1206850E8020FE8
:101E6000216820F0010041E8020292B1206850E8A8
:101E7000020F216820F0010041E802024AB1206807
:101E800050E8020F216820F0010041E80202002A18
:101E9000DAD12020A067E06704F1800087E7000026
:101EA000FEE7000096B0FEF7CBFB05A80430242126
:101EB000FEF754FA4FF40070FEF74EFC20B1EFF33A
:101EC000108072B6FEE700BF10206021059001204F
:101ED0000D9102210B90CDE90F1011902820129046
:101EE00007200024CDE9130105A80C941591FEF7F5
:101EF000A5FF28B1EFF3108072B600BFFEE700BF68
:101F00000F2000900320CDE9010468460421CDE9AB
:101F10000344FEF7C7FD28B1EFF3108072B600BF8F
:101F2000FEE700BFFFF72EFCFFF73CFCFEE7F1EEFB
:101F3000100A4FF6FF71C0F2C03120EA010040F0F4
:101F40004070E1EE100A7047000000000000000041
:101F5000010203040607080900000000010203044F
:101F6000A0860100400D0300801A060000350C0019
:101F700040420F0080841E0000093D0000127A00DC
:101F80000024F40000366E010048E801006CDC0219
:101F90000000000004000000020000000800000033
:101FA000C01F00080000002010000000C801000849
:101FB000D01F000810000020E8060000E40100081F
:101FC000010000001000000000093D0000000000BA
:040000050800018D61
:00000001FF
